{
  "_format": "hh-sol-artifact-1",
  "contractName": "Bank",
  "sourceName": "contracts/Bank.sol",
  "abi": [
    {
      "inputs": [
        {
          "internalType": "address",
          "name": "_mycoin",
          "type": "address"
        },
        {
          "internalType": "address",
          "name": "_reword",
          "type": "address"
        }
      ],
      "stateMutability": "nonpayable",
      "type": "constructor"
    },
    {
      "inputs": [
        {
          "internalType": "uint256",
          "name": "amount",
          "type": "uint256"
        }
      ],
      "name": "deposit",
      "outputs": [],
      "stateMutability": "nonpayable",
      "type": "function"
    },
    {
      "inputs": [
        {
          "internalType": "uint256",
          "name": "amount",
          "type": "uint256"
        }
      ],
      "name": "depositRewordToken",
      "outputs": [],
      "stateMutability": "nonpayable",
      "type": "function"
    },
    {
      "inputs": [
        {
          "internalType": "address",
          "name": "",
          "type": "address"
        }
      ],
      "name": "depositors",
      "outputs": [
        {
          "internalType": "uint256",
          "name": "amount",
          "type": "uint256"
        },
        {
          "internalType": "uint256",
          "name": "time",
          "type": "uint256"
        }
      ],
      "stateMutability": "view",
      "type": "function"
    },
    {
      "inputs": [],
      "name": "remainingReword",
      "outputs": [
        {
          "internalType": "uint256",
          "name": "",
          "type": "uint256"
        }
      ],
      "stateMutability": "view",
      "type": "function"
    },
    {
      "inputs": [
        {
          "internalType": "address",
          "name": "_peer",
          "type": "address"
        }
      ],
      "name": "seeDetails",
      "outputs": [
        {
          "components": [
            {
              "internalType": "uint256",
              "name": "amount",
              "type": "uint256"
            },
            {
              "internalType": "uint256",
              "name": "time",
              "type": "uint256"
            }
          ],
          "internalType": "struct Bank.Info",
          "name": "",
          "type": "tuple"
        }
      ],
      "stateMutability": "view",
      "type": "function"
    },
    {
      "inputs": [],
      "name": "totalStakedAmount",
      "outputs": [
        {
          "internalType": "uint256",
          "name": "",
          "type": "uint256"
        }
      ],
      "stateMutability": "view",
      "type": "function"
    },
    {
      "inputs": [
        {
          "internalType": "uint256",
          "name": "amount",
          "type": "uint256"
        }
      ],
      "name": "withdraw",
      "outputs": [],
      "stateMutability": "nonpayable",
      "type": "function"
    }
  ],
  "bytecode": "0x60806040523480156200001157600080fd5b50604051620012283803806200122883398181016040528101906200003791906200016b565b806000806101000a81548173ffffffffffffffffffffffffffffffffffffffff021916908373ffffffffffffffffffffffffffffffffffffffff16021790555081600160006101000a81548173ffffffffffffffffffffffffffffffffffffffff021916908373ffffffffffffffffffffffffffffffffffffffff16021790555033600260006101000a81548173ffffffffffffffffffffffffffffffffffffffff021916908373ffffffffffffffffffffffffffffffffffffffff1602179055505050620001b2565b600080fd5b600073ffffffffffffffffffffffffffffffffffffffff82169050919050565b6000620001338262000106565b9050919050565b620001458162000126565b81146200015157600080fd5b50565b60008151905062000165816200013a565b92915050565b6000806040838503121562000185576200018462000101565b5b6000620001958582860162000154565b9250506020620001a88582860162000154565b9150509250929050565b61106680620001c26000396000f3fe608060405234801561001057600080fd5b506004361061007d5760003560e01c8063acb39b021161005b578063acb39b02146100d8578063b6b55f2514610108578063eed75f6d14610124578063fadedbec146101555761007d565b80632e1a7d4d14610082578063567e98f91461009e578063a85ca52b146100bc575b600080fd5b61009c600480360381019061009791906109a4565b610173565b005b6100a66104f0565b6040516100b391906109e0565b60405180910390f35b6100d660048036038101906100d191906109a4565b6104f6565b005b6100f260048036038101906100ed9190610a59565b61065d565b6040516100ff9190610ac4565b60405180910390f35b610122600480360381019061011d91906109a4565b6106ca565b005b61013e60048036038101906101399190610a59565b610925565b60405161014c929190610adf565b60405180910390f35b61015d610949565b60405161016a91906109e0565b60405180910390f35b600081116101b6576040517f08c379a00000000000000000000000000000000000000000000000000000000081526004016101ad90610b65565b60405180910390fd5b6000600560003373ffffffffffffffffffffffffffffffffffffffff1673ffffffffffffffffffffffffffffffffffffffff168152602001908152602001600020905080600001546103e88361020c9190610bb4565b111561024d576040517f08c379a000000000000000000000000000000000000000000000000000000000815260040161024490610c68565b60405180910390fd5b6000606460056103e8856102619190610bb4565b61026b9190610bb4565b6102759190610cb7565b905060006201518083600101544261028d9190610ce8565b6102979190610cb7565b9050600081836102a79190610bb4565b9050600160009054906101000a900473ffffffffffffffffffffffffffffffffffffffff1673ffffffffffffffffffffffffffffffffffffffff1663a9059cbb33876040518363ffffffff1660e01b8152600401610306929190610d2b565b6020604051808303816000875af1158015610325573d6000803e3d6000fd5b505050506040513d601f19601f820116820180604052508101906103499190610d8c565b508484600001600082825461035e9190610ce8565b925050819055508060045410156104305760008054906101000a900473ffffffffffffffffffffffffffffffffffffffff1673ffffffffffffffffffffffffffffffffffffffff1663a9059cbb336004546040518363ffffffff1660e01b81526004016103cc929190610d2b565b6020604051808303816000875af11580156103eb573d6000803e3d6000fd5b505050506040513d601f19601f8201168201806040525081019061040f9190610d8c565b50600454600460008282546104249190610ce8565b925050819055506104e9565b60008054906101000a900473ffffffffffffffffffffffffffffffffffffffff1673ffffffffffffffffffffffffffffffffffffffff1663a9059cbb33836040518363ffffffff1660e01b815260040161048b929190610d2b565b6020604051808303816000875af11580156104aa573d6000803e3d6000fd5b505050506040513d601f19601f820116820180604052508101906104ce9190610d8c565b5080600460008282546104e19190610ce8565b925050819055505b5050505050565b60035481565b600260009054906101000a900473ffffffffffffffffffffffffffffffffffffffff1673ffffffffffffffffffffffffffffffffffffffff163373ffffffffffffffffffffffffffffffffffffffff1614610586576040517f08c379a000000000000000000000000000000000000000000000000000000000815260040161057d90610e2b565b60405180910390fd5b60008054906101000a900473ffffffffffffffffffffffffffffffffffffffff1673ffffffffffffffffffffffffffffffffffffffff166323b872dd33306103e8856105d29190610bb4565b6040518463ffffffff1660e01b81526004016105f093929190610e4b565b6020604051808303816000875af115801561060f573d6000803e3d6000fd5b505050506040513d601f19601f820116820180604052508101906106339190610d8c565b506103e8816106429190610bb4565b600460008282546106539190610e82565b9250508190555050565b61066561094f565b600560008373ffffffffffffffffffffffffffffffffffffffff1673ffffffffffffffffffffffffffffffffffffffff168152602001908152602001600020604051806040016040529081600082015481526020016001820154815250509050919050565b6000811161070d576040517f08c379a000000000000000000000000000000000000000000000000000000000815260040161070490610f02565b60405180910390fd5b600060045411610752576040517f08c379a000000000000000000000000000000000000000000000000000000000815260040161074990610f94565b60405180910390fd5b600160009054906101000a900473ffffffffffffffffffffffffffffffffffffffff1673ffffffffffffffffffffffffffffffffffffffff166323b872dd3330620f42406040518463ffffffff1660e01b81526004016107b493929190610ff9565b6020604051808303816000875af11580156107d3573d6000803e3d6000fd5b505050506040513d601f19601f820116820180604052508101906107f79190610d8c565b506000600560003373ffffffffffffffffffffffffffffffffffffffff1673ffffffffffffffffffffffffffffffffffffffff1681526020019081526020016000206040518060400160405290816000820154815260200160018201548152505090506000600282602001514261086e9190610e82565b6108789190610cb7565b90506000604051806040016040528084600001516103e88761089a9190610bb4565b6108a49190610e82565b815260200183815250905080600560003373ffffffffffffffffffffffffffffffffffffffff1673ffffffffffffffffffffffffffffffffffffffff168152602001908152602001600020600082015181600001556020820151816001015590505083600360008282546109189190610e82565b9250508190555050505050565b60056020528060005260406000206000915090508060000154908060010154905082565b60045481565b604051806040016040528060008152602001600081525090565b600080fd5b6000819050919050565b6109818161096e565b811461098c57600080fd5b50565b60008135905061099e81610978565b92915050565b6000602082840312156109ba576109b9610969565b5b60006109c88482850161098f565b91505092915050565b6109da8161096e565b82525050565b60006020820190506109f560008301846109d1565b92915050565b600073ffffffffffffffffffffffffffffffffffffffff82169050919050565b6000610a26826109fb565b9050919050565b610a3681610a1b565b8114610a4157600080fd5b50565b600081359050610a5381610a2d565b92915050565b600060208284031215610a6f57610a6e610969565b5b6000610a7d84828501610a44565b91505092915050565b610a8f8161096e565b82525050565b604082016000820151610aab6000850182610a86565b506020820151610abe6020850182610a86565b50505050565b6000604082019050610ad96000830184610a95565b92915050565b6000604082019050610af460008301856109d1565b610b0160208301846109d1565b9392505050565b600082825260208201905092915050565b7f616d6f756e74206d7573742062652067726561746572207468616e2030000000600082015250565b6000610b4f601d83610b08565b9150610b5a82610b19565b602082019050919050565b60006020820190508181036000830152610b7e81610b42565b9050919050565b7f4e487b7100000000000000000000000000000000000000000000000000000000600052601160045260246000fd5b6000610bbf8261096e565b9150610bca8361096e565b9250828202610bd88161096e565b91508282048414831517610bef57610bee610b85565b5b5092915050565b7f596f7520646f6e2774206861766520656e6f75676820746f6b656e7320746f2060008201527f7769746864726177000000000000000000000000000000000000000000000000602082015250565b6000610c52602883610b08565b9150610c5d82610bf6565b604082019050919050565b60006020820190508181036000830152610c8181610c45565b9050919050565b7f4e487b7100000000000000000000000000000000000000000000000000000000600052601260045260246000fd5b6000610cc28261096e565b9150610ccd8361096e565b925082610cdd57610cdc610c88565b5b828204905092915050565b6000610cf38261096e565b9150610cfe8361096e565b9250828203905081811115610d1657610d15610b85565b5b92915050565b610d2581610a1b565b82525050565b6000604082019050610d406000830185610d1c565b610d4d60208301846109d1565b9392505050565b60008115159050919050565b610d6981610d54565b8114610d7457600080fd5b50565b600081519050610d8681610d60565b92915050565b600060208284031215610da257610da1610969565b5b6000610db084828501610d77565b91505092915050565b7f6f6e6c79206f776e65722063616e2063616c6c20746869732066756e6374696f60008201527f6e00000000000000000000000000000000000000000000000000000000000000602082015250565b6000610e15602183610b08565b9150610e2082610db9565b604082019050919050565b60006020820190508181036000830152610e4481610e08565b9050919050565b6000606082019050610e606000830186610d1c565b610e6d6020830185610d1c565b610e7a60408301846109d1565b949350505050565b6000610e8d8261096e565b9150610e988361096e565b9250828201905080821115610eb057610eaf610b85565b5b92915050565b7f616d6f756e74206d7573742062652067726561746572207468656e2030000000600082015250565b6000610eec601d83610b08565b9150610ef782610eb6565b602082019050919050565b60006020820190508181036000830152610f1b81610edf565b9050919050565b7f5468657265206973206e6f207265776f7264206c65667420696e20746865206360008201527f6f6e747261637400000000000000000000000000000000000000000000000000602082015250565b6000610f7e602783610b08565b9150610f8982610f22565b604082019050919050565b60006020820190508181036000830152610fad81610f71565b9050919050565b6000819050919050565b6000819050919050565b6000610fe3610fde610fd984610fb4565b610fbe565b61096e565b9050919050565b610ff381610fc8565b82525050565b600060608201905061100e6000830186610d1c565b61101b6020830185610d1c565b6110286040830184610fea565b94935050505056fea26469706673582212208213f03a0711ee64b278e9f404de7a8c35fde5d225b8b5cf1ea0ea67976c84ee64736f6c63430008140033",
  "linkReferences": {},
  "deployedLinkReferences": {}
}